:10400000314000391542200175F335D0085A3F4040
:1040100058000F930724824520012F839F4FE6937A
:104020000011F9233F40E2220F930624824520012C
:104030001F83CF435811FA232183B012D64A474F2A
:104040003D4015003E40FF003F402E32B0124891E7
:10405000F2431D34F2433534B240805A2001A2426B
:10406000600182432E01A242800182431E01B240C0
:1040700020026001B24020018001F24084FF57001D
:10408000C2435800B2400040820139400C003A401F
:1040900000080B4336400004084A08DB0F48B01202
:1040A000E6470E430C4E6D430E3C1F4290013F52BB
:1040B000824F9201B2F0FEFF820192B38201FD278E
:1040C0000C4E1E4270017D537D93EF230E8C069E95
:1040D00001280B480A113953DF230F4B3FF0E00052
:1040E0003F90E00002203BF0E0FF0F4BB012E647AC
:1040F0005F4257007FF007007FD080FFC24F57001C
:10410000E2425800F2F0FDFF000082437001B2402D
:104110000202600182439001B240020180011F420D
:1041200060013FF0CFFF3FD02000824F60011F426F
:1041300080013FF0CFFF3FD02000824F8001C2437B
:104140002600C2432E00C2431B00C2431F00C243CD
:104150003300C2433700C2432100F240E0FF220097
:10416000F24030002900F2407B002A00C2431900CF
:10417000F240F1FF1A00F240DDFF1D00F240FDFFAA
:104180001E00F2433100F2433200C2433500F243D5
:104190003600C2432500C2432D001E4270013F403D
:1041A00000281D4270010D8E0F9DFB2FE2D31A00D7
:1041B000F2D21A00F2D080FF1E00F2D010001E00D2
:1041C000F2D080FF1D00B012584603430343F2F0C3
:1041D000EFFF1D00B01260465F43B01204484F432A
:1041E000B01204485F43B01204485F43B012044861
:1041F0005F43B01204484F43B01204484F43B0121B
:1042000004485F43B0120448B0125846B0125246F8
:10421000B0124C46F2D010003200F2D02000320032
:10422000F2D040003200F2D010003100F2D0200075
:104230003100F2D040003100B0126E8C4B4F4F93E2
:10424000FB23F2432734C24FB432C24FB632F2409E
:104250000A006433C24FA032C24FA732C24F1E348D
:1042600082433834C24F3134C24FCC32B012E646AA
:10427000C24BBD32C24BBC32F2438632B24318321B
:10428000C24B1A32B2431C32C24B1E32B2432032EE
:10429000C24B2232B2432432C24B2632B012D04536
:1042A000C24FBB331F4200111F53824F96328243CD
:1042B0009832B240E8330E32F2F0EFFF2200B01233
:1042C000E046F2F0FDFF1E00B012A645B2400040ED
:1042D0008601F243A632C24BA033C24BA133C24B7C
:1042E000A233C24BA333B012E046F2D040001E000E
:1042F000F2D020001E00B012E254824FAC32B01255
:10430000EC48824CB033824DB233824EB433824F8C
:10431000B633D2423C118E32C24B8F32F2401F0074
:104320009E33F2401A00B933B012EC48824CB033DD
:10433000824DB233824EB433824FB6333E40B033F7
:104340000D4E3D5007006F4EEE4D0000CD4F00006A
:104350001E533D533E90B433F623D2437F32C243C3
:104360003034D2439132C243AE33B0121045B24022
:1043700000408201B0126E8C4F93FC234F47B01265
:10438000EA4A32D2B012D64A4E4FF2900A00643353
:104390000624E2928B320324B012EA4A073C4F4EC5
:1043A000B012EA4A7F400F00B012F24AB012085A27
:1043B0006A42B012D64A494F7A3CC2930E116B241E
:1043C0001D4262013DF010000C201E4264013EF0CF
:1043D00010000E9D06201F4266013FF010000F9E48
:1043E00007241F4260013FF000033F900002312488
:1043F0005E4204003EF0C00005245E4271003EF0C3
:10440000200027205E4205003EF0300005245E4279
:1044100079003EF020001D205E4270001EF316243D
:104420005E4271003EF0200011245E4272003EF0B8
:1044300020000C245E4270002EF208245E427000C0
:104440003EF0200006207E500500043C7E40050022
:10445000013C6E43B2B01000A00118241D42A2011D
:104460003DF0100005241E42A2013EF212240D3C34
:104470001F42A2013FF000040F9D08241F4260016B
:104480003FF000033F90000201206E434A9E012C42
:104490006E42C24E58115E4258110E5E1E4EFC8F87
:1044A0003ED2814E000022D132C203430343B012F8
:1044B0003E474B4F7F9381274F49B012EA4A4F4BFB
:1044C000B0121A6A763F32D0F000FD3F3040E493DC
:1044D0005F930E244F9303246F931920113C1E42C7
:1044E00062018E105EF34E9F12241F427201304112
:1044F0001F4264018F105FF30A241F427401304190
:104500001F4266018F105FF302241F427601304183
:10451000B2F0EFFF820130415E4F01008E106F4F0D
:104520000FDE30410B120A120A4D0B4ECF4D030025
:104530000C4D0D4E8C108D104CED0CED7DF3CF4CD1
:104540000200CF4E01008E10CF4E00000E4A0F4BDE
:104550003A413B4130410B120A120912094F5C4F9C
:1045600003000D436F490E4D3FF0FF008F100EDC2E
:104570000FDD5D4901000C430EDC0FDD5A490200DE
:104580000B4C4BEA0BEA8B107AF38A100EDA0FDB36
:1045900039413A413B4130415E421C006EF35F437A
:1045A00001204F4E3041B2F0EFFF86013041B2F0B2
:1045B000FDFF84013041B2F0FEFF840130414F9392
:1045C0000324D24370003041F2F0FEFF700030410E
:1045D0000B120A120912081207120612051204120F
:1045E000184296321942983234404E830543B01235
:1045F000E2920A4C0B4D0C4E0D4F0E4A0F4B12C35C
:104600000F100E100E5C0F6D0F9305343EF33FF04C
:10461000FF7F1E530F63824E9632824F98320F4EA9
:104620003441354136413741384139413A413B41C6
:104630003041C293391108205F43F2900300E23108
:1046400004245F42391130414F433041E2D3190015
:104650003041F2D219003041F2D010001D0030413B
:10466000F2F0F7FF19003041F2F0CFFF01003041C6
:104670004F930324D24378003041F2F0FEFF7800DC
:104680003041F2D040001B003041F2F07F001B00AF
:104690003041F2D080FF1B003041F2F0BFFF1B0021
:1046A0003041C24F77005F4202003FF04000FB27DD
:1046B000F2F0BFFF02005F42760030415E4F010022
:1046C0006F4F8F100FDE3041F2F0EFFF23003041CB
:1046D000F2F0FEFF23003041B2F0EFFF84013041E1
:1046E000E2D21E003041C243BD33C243BC33E2427A
:1046F0008B32C2439B33C243C233C2438C328243A8
:10470000CA3230411E4270013F9001800A283F505A
:1047100000801D4270010D8E0F9DFB2F0E5F3F40EC
:1047200000801D4270010D8E0F9DFB2F3041F2F075
:10473000EFFF2A003041F2D010002A0030415F42E2
:104740001D347F930D244D4F0E4D3E502E326C4E36
:10475000C24C1D347C930220C24C3534FD432E32B2
:1047600030411F429001013C0F4E1E4290010F9EAE
:10477000FB2330410B124B4FB012D846E2D31F003F
:10478000B012B645B012AE454F4B4F5F4F5F4F5F13
:104790004F5F4F5F4F5F4F114F114F114F114F112F
:1047A0004F114F4F8F100F5F0F5F0F5F0F5F0F5F46
:1047B0000F5F3E4084013FD000018E4F0000BED00D
:1047C000100000004F433B4130415F43B01274473B
:1047D0003041CF432D000D433E4000803F502E001E
:1047E000B012244530410E4F8E108E117EF007001E
:1047F0005D4257007DF0F8FF4EDDC24E5700C24FBC
:10480000560030414F930324B0124C46033CF2F063
:10481000FDFF1900B0125246B01260463041F2F06E
:10482000EFFF05003F403300FFF0FDFF0000FFF009
:10483000FBFF0000FFF0F7FF00003041F2F0CFFF78
:104840000500B0129A46B0128A4630410B120B4F47
:104850001F53B01218450E4F8E103EF0FF0012C3CA
:104860000E100E110D4E3DF003000D5D1F4D089012
:104870000E110E110E110E110E5E1E4E08900E5FDF
:104880003E5006000F4B0F5E3B413041F24080FF2F
:104890002A32C2438A32C2432234C2431C34C24346
:1048A000803230410D4F8D104D4D3FF0FF008F1085
:1048B0000DDF4E4E0DEE4E4D12C34E104E114E11E9
:1048C0004E114E4E0EED0F4E3FF0FF008F100F5F5A
:1048D0000F5F0F5F0F5F0FEE0E4F3EF0FF000E5E9B
:1048E0000E5E0E5E0E5E0E5E0FEE30410B120A1271
:1048F0000912081207123150F2FFC293E4318320EB
:10490000B0122E47F2F0EFFF2900B01236473F40B9
:104910003002B0120447B0122E473F403C00B012A4
:1049200004470B43F2B01000280009243B50050057
:104930003F400500B01204473B90F000F3233F4096
:10494000A401B01204473B90F0005F2C7A427B40F8
:1049500033001BB30B24B01236473F400500B012A2
:104960000447B0122E473F4041000A3CB012364780
:104970003F403C00B0120447B0122E473F400500B4
:10498000B01204477A53032412C34B10E23F3B405A
:10499000A6330A4B7842494312C34910B012364736
:1049A0003F400500B0120447B0122E473F400500BB
:1049B000B0120447574228003F404100B01204475C
:1049C00077B01000022479D080FF7853E523CA49DC
:1049D00000001A533A90AE33DD234F486FEB7E420E
:1049E0000D4F1DF312C34F100D9302247FE08CFF77
:1049F0007E53F6231B533B90AE33F0234F93072097
:104A0000D243E431063C4F43043C6F42023C7F40BA
:104A10000600C293E4310A240E430D410D5EDD4EC3
:104A2000A73300001E533E900600F7234F9308243F
:104A30003D420E430F413F500600B0124891163CD4
:104A4000C14F0600F14012000700F1406D00080060
:104A5000F14045000900F14050000A00D141020038
:104A60000B00D14101000C00E1410D001C4106008A
:104A70001D4108001E410A001F410C0031500E006C
:104A80003741384139413A413B4130414F9305204C
:104A90003E904A320220C24FD83130415F43B012BB
:104AA000BE45F2F0BFFF04003F401B00FFF0FDFFDA
:104AB0000000FFF0FBFF0000FFF0F7FF00004F4396
:104AC000B012BE4530415F43B0127046B012684626
:104AD000B0123C4830410E4232C2034303433EF21F
:104AE0005F430E9301204F4E30414F93012432D249
:104AF00030410B124B4FB012D64A4E4BFE932E3222
:104B00001120C29B35340E24F2931D340320C24B76
:104B10001D34043C5E423534CE4B2E32C24B35340C
:104B20004B43023C7B400500B012EA4A4F4B3B41ED
:104B30003041C29302322E204F932C20D2430232B6
:104B4000D242411104325E42F0315EF3C24E2B324A
:104B5000924246110632D242F23108325E42F031C0
:104B60005EF35D434E9F01244D4F4F4D5FF35E4218
:104B7000F0317EF0FEFF4EDF4F4D0F5F924F42113E
:104B800046117EF0E7FFC24EF0317F401300B012B5
:104B9000F24A30415E42F0315EF35F42F03103246D
:104BA0007FF0FBFF023C7FF0FDFFC24FF031304150
:104BB000F2900A0064330320E2928B320324D24342
:104BC000EE3130417F401000B012F24AC243EE3164
:104BD0003041D293391112205F42E2315F930420B9
:104BE0007F52B012F24A083C6F930A20D242B83387
:104BF0003911F2400300E2314F4330415F4330410D
:104C00005F42391130410B12B012D64A4B4FC2935A
:104C1000313408207F400E00B012F24A4F93022038
:104C2000D24331344F4BB012EA4A3B4130410B1270
:104C30000A1209124B4F4A4E5F428B3259434F9929
:104C400014244F9308246F9343247F90030002247D
:104C50003040244E4B3C4B9F022030405E4EB01201
:104C6000E646C2498B3230405E4E4B9302243040C0
:104C70005E4E1F42CA32B012A448824FCA32E2438B
:104C80008B32C24AC2337A904400CC2030404E4E20
:104C9000E2B2F0314F434F63043CE2B3F0314F4393
:104CA0004F634F93BF205D42F0314E9F02246DD27F
:104CB000013C6DD3C24DF0315F42F0317FF0E7FF30
:104CC0007FD2C24FF031C243F231F2434111C73CAF
:104CD0004B93A820C24E8C321F42CA32B012A44855
:104CE000824FCA32F24003008B32B93C5F429B33A1
:104CF0007F9398244B934124499F942C5F42BC336B
:104D00004F9302247F53013C6F434E4F5E4EBE33A0
:104D10008E104F9302247F53013C6F434F4F5F4FE0
:104D2000BE330FDE1F92CA327D204F43B012324B8A
:104D30005C428C325E42BC325B42BD324F4E5F53AE
:104D40007F900600022C4D4F013C4D434D9B0C249F
:104D50004E4ECE4CBE32C24FBC327F90060002286F
:104D6000C243BC32B012064CB012E646F2F0FDFF70
:104D70000A32C293EE317324603C499F422C5F4259
:104D8000BD335E4FBE335D42F0314F4D12C34F1005
:104D90004F114F113FF003001F9303242F931D2049
:104DA000103C4F4D7FF0E7FF7FD01000C24FF03135
:104DB0004E9302207B400500C24BF231C24E41119E
:104DC0000C3C5F42F2317F903400072C4F4F1F5252
:104DD0004611CF4E0000D253F2315D42BD334F4DEC
:104DE0005E4FBE334F4D5F53C24FBD337F900300C4
:104DF0000228C243BD331F42CA32B012A448824FB8
:104E0000CA325E42BC334F4ECF4ABE334F4E5F5321
:104E1000C24FBC337F9003000228C243BC33D2533D
:104E20009B331D3CB012E646F2F0FDFF0A325F43B1
:104E3000B012324BC293EE310524E2428B32B012F3
:104E4000B04B0D3C4B930B24D2438B32083C5E425B
:104E5000F0315EF3022030409A4C3040904C3941A2
:104E60003A413B4130410B12B012D64A1E429E32AB
:104E70000E9303241E5220346E4EC24E77005E42C3
:104E800020346E531D4224344C4E0D9C1A2C4E4D32
:104E9000183C5E4202003EF04000FB275B42760079
:104EA0001E4262330E9303240D5ECD4B00001D4263
:104EB0009E320D9303241D5220346D4DC24D770058
:104EC000013C4C4E1D4220340E4D1E53824E203468
:104ED0000E9CDF2BB012EA4A3B4130410B12B0125C
:104EE000D64A5B43C293A03301244B43B012EA4A33
:104EF0004F4B3B413041C293E0313920F2933611A0
:104F00003620B012DC4E4F933224D243BA33C293D0
:104F10002C320224C243BA33C293BA332A24F29009
:104F20000300E2312920C293391128205F42371152
:104F30007F9316244E4F5D4EA632C24D37117D939E
:104F40000220C24D3811FE43A632C24FB833F2439D
:104F50003911D243E2317F400900B012F24A043CD9
:104F6000D2433911C243E231B0129C4A053C5F433F
:104F700030417F40050030414F4330414F43304185
:104F80000B120A124A4FB012D64A4B4FB012DC4EE7
:104F90004F9305244F4BB012EA4A4F43063C4F4B08
:104FA000B012EA4A4F4AB012A2463A413B41304160
:104FB0007F400900B012804F30410B120A124A4F55
:104FC000B012D64A5B43C29AA13301244B43B012BC
:104FD000EA4A4F4B3A413B4130410B12B012D64A9C
:104FE0001B42AC32B012EA4A0F4B3B413041B01287
:104FF000D64AF2F0FBFF1D00B012EA4A3041C2432C
:10500000AE32824F9E32824E6233824D24348243CE
:1050100020340D930D24B012D64AF2F0BFFF0200E7
:10502000F2D040000000B012EA4AB012664E033CD3
:105030007F42B012F24A4F4330410B120A1209125A
:105040000A4F494EB012D64A4B4FB012DC4E4F9326
:1050500005244F4BB012EA4A4B43103C4F4BB01261
:10506000EA4AB2407F00B0327F407F00B012A246D1
:105070004B4F4D490E4A0F43B012FE4F4F4B394133
:105080003A413B413041B012EE4F5E431F420E3277
:10509000B0123A5030410B124B4FB012D64AC24BAD
:1050A000DC31B012EA4A6F42B012F24A3B41304161
:1050B0000B124B4F9243E631C2432C32B012F64EE4
:1050C0004F4BB01296503B4130410B124B4FB01238
:1050D000D64A4E4BCE43A033B012EA4A3B41304150
:1050E000B012D64AE2D21D00B012EA4A30410B1289
:1050F0000A12091208120712494FB012D64A474F36
:10510000C29936110424B012EA4A5F43383CF24394
:1051100036115942E031499303244C4348490A3C33
:105120004F49B012CA50B012F64E4F47B012EA4A79
:105130004F49253C7A400500B012EE924C4E0F4C80
:105140000D480F9303240D111F83FD231DF3142419
:10515000C24E36111E430C9303240E5E1C83FD23A6
:1051600049CEC249E0317F400700B012F24A4F47B2
:10517000B012EA4A4F43033C4C4E5C53DB3F37418D
:10518000384139413A413B4130416F42B012EE5013
:1051900030417F400300B012EE504F4330410B12BC
:1051A0000A120912B012D64A494F1B429C32B01261
:1051B00062470A4F1F4280015FF304241B53B01261
:1051C00062470A4F4F49B012EA4A0F4B0E430C4A4E
:1051D0000D4E0EDC0FDD39413A413B4130410B129F
:1051E0000A120912B0129E51094E0A4F1B42123286
:1051F0001C4214320D4B0E4C1D5282321E62843200
:105200000A9C0B280A9C0220099B07280E9C112847
:105210000E9C09200D9B0D28063C0E9C04280C9E1C
:1052200027280D9B252C0A9E04280E9A2128099DCB
:105230001F2C0B4D0C4E0B890C7A0C9303203B90CA
:10524000018018280E490F4A3E5000800F63824E9D
:105250001232824F14320E4B0F4C3E5000803F638F
:10526000824E8232824F84323B4000800C430A3CA3
:105270000B430C43824D1232824E143282438232EF
:1052800082438432B01262470E4F0E890E9B042C6B
:105290000B8E3B900300062CB01262472F53824FB7
:1052A0009601033C0B5F824B9601B2F0FEFF860134
:1052B000B2D01000860139413A413B4130410B12D6
:1052C0000A120912081221830A4E0B4FB0129E5186
:1052D000084E094FB012D64A82481232824914321F
:1052E000824A8232824B8432814F0000B012DE51FA
:1052F0002F41B012EA4A2153384139413A413B41EA
:1053000030410B120A120912B012D64A494FB0129C
:10531000D0450C4F3A404600B0120A933E500B0065
:10532000824E32340F43B012BE524F49B012EA4A95
:1053300039413A413B4130410B120A12B012D64A70
:105340004A4FB292E6311020B012B04FB0129251D3
:10535000B012E0509243E6317F400300B012965005
:105360004F4AB012EA4A2F3CB012EE4FC293363485
:1053700003247F400500013C6F42B012804F4B4F29
:105380003BF206204F4BB012804F3FF20F9B0420A0
:105390005B433F400300023C3F400500824FE63143
:1053A000B012E0504F4AB012EA4A4B930724C2436E
:1053B0001632B0129251B0120253053C3E404001E9
:1053C0000F43B012BE523A413B4130410B120A1218
:1053D0000912494F0A4EB012D64A4B4FB012DC4E5A
:1053E0004F9305244F4BB012EA4A4F430D3C4F4BAD
:1053F000B012EA4A4F49B012A2460F4A8F10B012BB
:10540000A2464F4AB012A24639413A413B4130418F
:105410000B120A12091208120712094F4B4E074DC0
:10542000484CB012D64A4A4FB012DC4E4F93052476
:105430004F4AB012EA4A4F43223C4F4AB012EA4A5E
:105440004B4B0B594F4B7FD080FFB012A246494FB8
:105450000E4B12C30E104F4E7FF0C0FFB012A2468B
:105460004B484A48093C4E4B0F4A0F8E0E4F0E5781
:105470006F4EB012A2467B534B93F5234F493741F1
:10548000384139413A413B4130410B123150F4FF30
:10549000B012D64A4B4F3D423E40B0330F41B0129E
:1054A00044901F428E320E413E52CE4F00008F106C
:1054B000CE4F01001F42AC322E53CE4F00008F1052
:1054C000CE4F01004F4BB012EA4A7C400C000D4118
:1054D0004E433F406001B012105431500C003B412C
:1054E00030410B12B012D64A1B423A11B012EA4AAE
:1054F0000F4B3B4130410B120A1209120812B01235
:10550000D64A484F1A42C6321B42C832B0126247CE
:10551000094F1F4280015FF305241A530B63B01239
:105520006247094F4F48B012EA4A0F4912C30F10A1
:105530000F110F110F110C4F12C30C100D430E4A17
:105540000F4B4FEE0FEE8F107EF38E100E5E0F6F2F
:105550000E5E0F6F0E5E0F6F0EDC0FDD38413941AE
:105560003A413B4130410B120A120912B012F65473
:10557000094E0A4F1B42A8321C42AA320D4B0E4C58
:105580001D52A2321E62A4320A9C0B280A9C0220E1
:10559000099B07280E9C11280E9C09200D9B0D28A5
:1055A000063C0E9C04280C9E27280D9B252C0A9E49
:1055B00004280E9A2128099D1F2C0B4D0C4E0B8997
:1055C0000C7A0C9303203B90010418280E490F4AD3
:1055D0003E5000040F63824EA832824FAA320E4B17
:1055E0000F4C3E5000FC3F63824EA232824FA432E9
:1055F0003B4000040C430A3C0B430C43824DA83251
:10560000824EAA328243A2328243A4320B5B0B5BEE
:105610000B5B0B5B0B5BB0126247095909590959C7
:10562000095909590E4F0E890E9B042C0B8E3B9085
:105630000300062CB01262472F53824F9201033CA5
:105640000B5F824B9201B2F0FEFF8201B2D01000DC
:10565000820139413A413B4130410B120A12091291
:10566000494F0A4D0B4EB012F6544D490C4D0C5C8F
:105670000C5C0C5D0C5C0D4C3D50D0328D4E00002E
:105680008D4F02008D4A04008D4B06005F4CD832CE
:105690007FF0FCFF6FD3CC4FD8325F43B012F24A99
:1056A00039413A413B4130410B124B4FB012D64A7F
:1056B000C24BA133B012EA4A3B4130410B120A12ED
:1056C00009121B4294325A4B2A004A9302207A5004
:1056D0001F00B012EE4FC29A7E3207244E4A3ED0CF
:1056E000E0807F401500B012CC53C24A7E32694B35
:1056F000B012D64A4A4FB012DC4E4F9304244F4AA0
:10570000B012EA4A113C4F4AB012EA4AB2403E0097
:10571000B0327F403E00B012A2464D497D534D4D00
:105720000E430F4BB012FE4F39413A413B413041DD
:105730000B124B4FB012D64AC24BB933B012EA4AE1
:105740003B413041B012D64AF2F0BFFF1D00B0120B
:10575000EA4A3041B012D64AF2D040001D00B012E1
:10576000EA4A30410B12B012D64A5B42B933B0124A
:10577000EA4A0E4B0E5E0E5B0E5B0E5B3E502E0138
:105780003ED000407F401800B012CC533B41304126
:105790000B12B012D64A4B4FC2937F3204241E43E1
:1057A000C293303401200E433EF0FF008E100E5E97
:1057B0000E5E0E5EC293913204241D43C293AE333B
:1057C00001200D433ED0E2220D5D0D5D0D5D0D5DAE
:1057D0000EDD7F401100B012CC534F4BB012EA4A9D
:1057E0003B4130410B12B012D64A5B43D292BD32DC
:1057F000BC3201244B43B012EA4A4F4B3B4130418B
:10580000B012D64A4E4FC2934A110820F2900300BC
:105810000C320420B012EA4A5F4330414F4EB012BE
:10582000EA4A4F433041B01200584F9311248293FB
:105830002E341020B24047322E3492439C33C24360
:10584000103292439232D24247327F004F4330416E
:105850005F4330417F4005003041B012D64AF2F03C
:10586000FEFF0A32F2407E004732B012EA4AB0121E
:10587000265830414E4F7E5083FF6E930A2CD2D370
:105880000A327FE02000C24F9A33F2407D00473257
:10589000023CC24F4732B012265830410B120A1256
:1058A0000912D2B30A320924F2F0FEFF0A32D242C0
:1058B0009A334732B01226588F3C5F4264337F538D
:1058C0007F92852C4F4F0F5F104FCC58DC58F25809
:1058D00014599059A259B659C459D4595F42A732A4
:1058E000B01274584B4FF240030064335E42A7324B
:1058F0000A3C5F421E34B01274584B4FF240030012
:1059000064335E421E341F423834B012A448824FC2
:1059100038345B3C5F42CC320F5F3F50B4325F4F54
:105920000100B01274584B4F5942CC324A490F4AC9
:105930000F5F3F50B4325E4F01001F423834B01247
:10594000A448824F38345D42A0325D53C24DA0322C
:1059500059931B205E42FA314F4E1F52F4316F4F64
:105960005E53C24EFA31C29EF831032CE243B63286
:105970004F430E4A0E5E3E50B432EE9300000524B3
:105980007D930324CE4F0100203CE24264331D3C52
:105990005F423834B01274584B4FF2400500643304
:1059A000143C1F4238348F10B01274584B4FF240E1
:1059B000060064330A3CB0125A584B4FF2400700BD
:1059C0006433033CF2426433053C4B930524F240BC
:1059D00009006433B012064C39413A413B41304131
:1059E0000B124B4FB012D64A4E4B3E50A033CE93C3
:1059F00000000420DE4300004B43013C5B43B01237
:105A0000EA4A4F4B3B4130410B125F43B012E05921
:105A10004B4F4F931920B012D64A8293DE310324A4
:105A2000B012EA4A1C3C9243DE31B012EA4AB0128C
:105A3000D64AF2D020001D00B012EA4A3E401400BF
:105A40000F43B012BE520B3C6F43B012BA4F4B4FD4
:105A50004F9307205F43B012BA4F4F9B05244F4B23
:105A6000053C7F400900023C7F4005003B4130413E
:105A70000B120A1209124B4FB012D64A494F4F432C
:105A8000B012E0594A4F4F932B20C24B3611B0123F
:105A900032464F9A05247F400700B012F24A293C53
:105AA000C29FE2310720D243E231C24FB833B01275
:105AB000D24B1F3CC29FB8331C24F293A63219204C
:105AC000C29F38111624F29337110320C24F3711A9
:105AD000043C5D423811CD4FA632C2433811093C17
:105AE0001E434D4B0D9303240E5E1D83FD23C2DE2A
:105AF000E0314F49B012EA4A4F4339413A413B4104
:105B000030410B12B012D64A4B4FC29334340424A6
:105B1000B012EA4A5F43113CD2433434A292DE31E0
:105B200004205F43B012705A043C7F400600B0125C
:105B3000F24A4F4BB012EA4A4F433B4130410B12FD
:105B40000A124B4F4F933C20B012D64A4A4F5F4344
:105B5000B012BE45F2F0DAFF70005F43B012BE45EE
:105B6000F2F03F000400F2F0EFFF1B00F2F0DFFF65
:105B70001B005F4204117FD00500C24F7000D2426B
:105B8000051171001F420211C24F74008F10C24FE5
:105B90007500C24B7300E2D31B00E2D21B00F2D2AD
:105BA0001B00F2D0400004004F4BB012BE45F2F093
:105BB0003F000200F2F03F0000004F4AB012EA4AF4
:105BC0003A413B4130410B120A1209120812484F68
:105BD000B012D64A494F4F43B012E0594A4F4F9343
:105BE00006244F49B012EA4A7F400500253CB01216
:105BF00032464B4F4F9A0424C24836114B4A183C48
:105C0000C29FE2311120E243E231C24FB833B012F9
:105C1000D24BC29B391106204F4BB0123E5BC2489B
:105C20003611063CC24BE2314F43B012CA505B43BF
:105C30004F49B012EA4A4F4B384139413A413B4152
:105C40003041A2434432D2438A32E29236110524D3
:105C50006F42B012C65B4F930320B01286503041A2
:105C60006F42B012705A30410B12B012D64A4B4FED
:105C7000829344321924C2438A325E4280324E9368
:105C80000324F2B2200006205F4220005FF30820C8
:105C90004E9F03247E53C24E8032B012425C063CBB
:105CA00092434432C2438032B0128A514F4BB012F9
:105CB000EA4A3B413041B0128C48B012E050B01279
:105CC000EE4F7F42B012804F7F42B012804FB01231
:105CD000E050B0128A51B012685C30410B120A12C7
:105CE000091208121A4262335C42AE324C9302240B
:105CF00030409E5F1E42B032094E39F04000022013
:105D000030403A5F7EF0BFFF7E903F00022430407B
:105D10009E5F1B420E326D4BC24D46321F424432D3
:105D20003F9005003E243F90060080242F930224DC
:105D300030402C5FB240050044325F422A324C4D65
:105D40004E4F0C9E2A345E4220007EF20A205C42B6
:105D500020005CF34C9E05204E4D7EE34E5FC24E0C
:105D60002A327D902A00192C4D9310240E4B1E537D
:105D70007D9203283D400700043CB24006004432B7
:105D80004D4D0F43B012FE4F30409E5FC24D8A32E0
:105D9000B012E050B0128A51C63CB012B65C30402E
:105DA0009E5FB24006004432C29391323724C293C0
:105DB000AE333420094B19530F49B01218453FF048
:105DC00020002C240A4B3A5006000F4AB012184506
:105DD000084FB012DA4F089F05240F4AB012184539
:105DE0003F931C200F49B01218453FF007001F9346
:105DF0001520B012E050B012EE4F7F400A00B012F2
:105E0000804FB012E050B012EE4F5E4246327E50EC
:105E1000F9FF0F4B3F52B0123A50C13C5D4246323F
:105E20007D50F9FF4D4D0E4B3E52AB3FB012E0504E
:105E3000C29380320220B0128A51C293803203246E
:105E4000F2B220000B20D2B3200008245F421C34A1
:105E50004F930424F2900B004632052C1F420E3261
:105E6000B012D247253C5F930E205F4222340F5F71
:105E70000F5F1D4FC8331E4FCA331F420E323F50B3
:105E80002E00B01224455F4222341F537FF00700DA
:105E9000C24F22345F421C347F53C24F1C3408244B
:105EA0001F420E32B012D247C2432234C2431C34C6
:105EB0005F4246320F5BCF93000035340A933324A0
:105EC0000F4B1F53B01218457FF007001B420E32D4
:105ED0006F9322201F4294320F932524B290070023
:105EE000E6312120DF9B030003001D20B012A645F0
:105EF0001F4294323F5028006E4BDF4304000E5B7C
:105F0000DF4EFFFF00006E4E7EF07F00CF4E01009F
:105F10004F43B012B050073C5F9305207F500900FB
:105F2000B012F24A3C3CB012685C393CC24C8A3236
:105F3000B012E050B0128A51323C7E903E002F20C9
:105F4000B012E050B292E6310F20B012EE4FB01214
:105F5000B04FB012E050B01292519243E6317F4000
:105F60000300B01296501B3CC29336340520A24267
:105F7000E631B0123853133CB0129251B2400300D4
:105F8000E631B012D0450C4F3A403601B0120A93B8
:105F90003E500B00824E28320F49B012BE5238419B
:105FA00039413A413B4130410B127F400300B0126E
:105FB000C65B4B4F4F9304247F400300B012705ACE
:105FC0004F4B3B4130410B120A12091208120B4F82
:105FD000B012D64A4A4F0F4BB0124C48FF403F0018
:105FE00000004F4AB012EA4A82432A346F43B0128B
:105FF000E0594A4F4F936A205F42BB334E4F5E5386
:10600000C24EBB33CB4F0300B012D64A484F6F434A
:10601000B012BA4F4F9A08204F48B012EA4A6F4365
:10602000B012CA505A43543C094B395028006F42B1
:10603000B012A856824BBA324F48B012EA4A084B07
:1060400018530F48B01218450E4F3EF020CCCB4EDF
:1060500001008E10CB4E02000F48B01218453FD001
:106060004100CB4F01008F10CB4F0200C94A040002
:10607000C94A0000C94A01000D433E4000800F4B51
:106080003F502E00B0122445D243A4331B42BA32F3
:10609000B012D64A1E42E6313E9202241E930324D9
:1060A000B012EA4A153CA243E631C24E3634824B66
:1060B0009432C24A1632B012EA4AB012A85F4B4F6D
:1060C0004F930620B012BC564A4B023C7A40050062
:1060D0004F4A384139413A413B4130410B120A1293
:1060E00009120B4D4A4C7C901D00512CCD4F0B00DA
:1060F0000F4D3F500600CF4E00008E10CF4E0100D6
:10610000B012D64A19428E32B012EA4A0F4B2F52C1
:10611000CF4900008910CF490100B012E2540E4B64
:106120003E52CE4F00008F10CE4F01000F4B1F5339
:10613000B01218453FD04088CB4F01008F10CB4F95
:1061400002004F4A7F500D00CB4F0000C2933D111B
:106150000824C2433D110F4BB012C65F4F9310206D
:106160001A3CC24AB832D2423D11B932824BEC31AC
:106170007F400B00B012F24AC2933D110A24033C47
:10618000F2433D11083CC2439A324F43043C6F43F3
:10619000023C7F40090039413A413B4130410B12FA
:1061A0000A1209124A4F094E4C4F0C5C3C50C43243
:1061B0008C430000C24340111B42C4322B9C042478
:1061C0005F4228341FF30224D2434011C29340118E
:1061D00014200F4B3F500600B01218456C4B7C50FA
:1061E000F3FF0D4B0E4F5F4B0B00B012DC604F9373
:1061F00004247F400D00B012F24A0E494F4AB012FB
:106200008C4A39413A413B413041C2934011082008
:106210001E42C4320E9F04205F424011B0129E61A4
:1062200030413E405032C24F50328F10CE4F0100AD
:10623000F240060055328293C4321D20B2404A32E9
:10624000C432F24013004A32C293401117240F4E59
:10625000B0121845C24340117C4006003D404A320E
:106260000E4F4F4CB012DC604F930A24D2434011C2
:106270008243C43230417F40050030415F424011CB
:1062800030410B120A120912081207127F920228DB
:10629000304078654F4F0F5F104F9C62AC62E262F6
:1062A00088642C653C654C655C656C651F428201A9
:1062B0008F104A4F5AF304241F42920130407865F0
:1062C000B01210458293A23208208293A432052096
:1062D0004F4AB012F24A30407865B01266553040ED
:1062E00078651F4284018F105FF30220304078658B
:1062F00018429401B012B645B012AE45B0129E518C
:106300000A4E0B4F0D4E0D880E430A8D0B7E1F4219
:10631000E6313F90050004243F9006006A204E3C81
:10632000B2400600E631D2438732C243E8316F43C0
:10633000B01274470D4A0E4B1F4294323F502E004C
:10634000B01224451F429432CF932D002324674F6F
:106350007750FBFF4947095F0F49B01256450D4E74
:106360000E4F0D8A0E7B0F49B0122445B012EE4F2E
:106370006C420D494E470F43B0121054B012E0501A
:106380000F49B01256450D4E0E4F0D5A0E6B0F4968
:10639000B01224451F4294321F53B01218453FF0EB
:1063A00020000224D2432C32B0129251B012A645E2
:1063B000B01298454F93022430407865C24387322B
:1063C000B012CA471F4294321F53B01218453FF013
:1063D00020000924B2400700E6313E4000010F438F
:1063E000B012BE52023CB012B050B01298454F935A
:1063F000C324C293E8312620C29387322520D2439A
:1064000087326F43B0127447B0129845494F5F42CC
:106410001C347F920E2C4E4F5E5222343EF0070009
:106420000E5E0E5E8E4AC8338E4BCA335F53C24F28
:106430001C34D243E8318248B232B01298454F93AF
:1064400005249A3C4943023C5942E831D2938732B1
:106450009320C2438732B012CA47C243E8314993FE
:106460008B201882B23238900A00862C5F421C348E
:106470004F9303247F53C24F1C341F4294320F9317
:106480007B24B012D247783C1F4286018F105FF305
:1064900003241F429601703CB012A64582938232BB
:1064A0004220829384323F201F42E6313F50FDFF5D
:1064B0003F9006002B2C0F5F104FBC64C864E6644D
:1064C000F8640C65F464E664F2B01000200008245F
:1064D000A242E6313E4007000F43B012BE52163CC6
:1064E000B0120253133CB012A85F4F930F20B012AA
:1064F00038530C3C4F43083CB012B04FB012CA475F
:10650000B01292517F400700B012B0509293DE312A
:106510003320A243DE31B0124457B01254574F43D8
:10652000B012705A293CB012DE51263C1F4288013D
:106530008F105FF321241F4298011E3C1F428A01E5
:106540008F105FF319241F429A01163C1F428C01E1
:106550008F105FF311241F429C010E3C1F428E01DD
:106560008F105FF309241F429E01063C92539C3218
:106570009253C6328263C8323741384139413A4179
:106580003B4130410B124F9365201F424C1112C307
:106590000F10C24F2634B012D64A4B4F5F43B01291
:1065A0007046B0121E485F424F117FF0FAFF5FD372
:1065B000C24F7800D24250117900D24251117A0074
:1065C0001F424C11C24F7C008F10C24F7D00D2423F
:1065D0004E117B005E4252117EF003007E9003005C
:1065E0000820B0128246B0129246F2D03000050068
:1065F0001C3C6E930B20F2F0DFFF0500B0129A46B0
:10660000B0129246F2D0100005000F3C5E930B20B2
:10661000F2F0EFFF0500B0128A46B0128246F2D0C7
:1066200020000500023CB0123C484F43B0127046B7
:10663000F2F0CFFF0300B01268464F4BB012EA4AA7
:10664000B012D64AF2F0CFFF0300F2D030000100C2
:10665000B012EA4A3B4130410B123F406B33FF40DE
:106660007E000100C2436B33FF4089FF0600EF420A
:1066700004008293F6313820B012D64AF240050069
:10668000FA31C243FC31B2406633F431A243F631F1
:10669000C2430032C243FE31F2401000F831B01262
:1066A000EA4AB012D64AF2900A0064330320B012CC
:1066B000EA4A163CB012EA4AB012D64AC293B6323F
:1066C0000620D243B632C243B7325B43013C4B4350
:1066D000B012EA4A4B930424B012064C4F43063CD6
:1066E0008243F6315F43023C7F4005003B4130412D
:1066F0000B120A1209120812071206120512054E91
:10670000064F3C40D0320B430F4B0F5F0F5F0F5BC8
:106710000F5F3F50D0325F4F08006FB30220304010
:10672000F669274C184C02001D4C04001E4C060054
:1067300009450A4609870A780A9E022C3040F66904
:106740000A9E0420099D022C3040F6694C4F5CF3F0
:106750000F4B0F5F4C9307240F5F0F5B0F5FFFF032
:10676000FDFFD8320B3C0F5F0F5B0F5F09470A48F4
:10677000095D0A6E8F49D0328F4AD2325B937624FC
:106780004B9306246B9302243040046A30404A69DC
:10679000D293D83167241F4260111F92AA302C2057
:1067A0001E42A6300E935C24D2435732C24B56325F
:1067B0000E5E3E5064112D4E3E405832CE4D0100CB
:1067C0008D10C24D58320D4F0D5D1D4DAC30CE4D6C
:1067D00003008D10C24D5A325E4210117D401F00E1
:1067E0004D9E012C4E4DC24E7432B01222624F9318
:1067F0003720B253A630323C1F4216112F93062485
:106800001F932E20B01242921FF32A20F2406700FD
:106810005732F2402B0056321E4200113F40583290
:10682000CF4E01008E10C24E58321E4260110E5ED5
:106830001E4EAC30CF4E03008E10C24E5A325F4215
:1068400010117E401F004E9F012C4F4EC24F7432DC
:106850001F42AA30B01222624F930220D243D83195
:106860008243AA30F2F0FDFFD832CC3CC2935C11D7
:106870002920C293D831C620C2435732C243563270
:106880001E4200113F405832CF4E01008E10C24EC2
:1068900058321E426211CF4E03000F4E8F10C24F6E
:1068A0005A325F4210117E401F004E9F012C4F4E06
:1068B000C24F74323F43B01222624F93A320D2439F
:1068C000D831A03CC293DA319D201F425E111E4296
:1068D000A6300D4E3D50BC020F9D1A28F2403500E7
:1068E0007333F24082FF7233F24035007533F24069
:1068F00082FF7433B01258664F930220C24BDA31D4
:10690000C2435C1182435E11F2F0FDFFE2327A3C39
:106910000F9E04281F53824F5E11743C0E4F0E5E73
:106920001E4E6611C24E73338E10C24E7233C24376
:106930007533C24374331F53824F5E11B0125866D1
:106940004F936020C24BDA315D3C1F425A111F92B7
:106950001411052C1F521211824F5A11533C8243BD
:106960005A1137400B003B407233094B29531F42E9
:1069700062111F53824F6211079F272C1F42001183
:10698000CB4F01008F10C24F72331F42A830C94F46
:1069900001008F10C24F7433B01258664F9302201B
:1069A000D243DA31924264116211929300110520B0
:1069B000D2435C1182435E11033CF2F0FDFFE232F0
:1069C000F2F0FDFFEC321D43013C0D431E4262110B
:1069D0003F40AE302E9F06242F533F90C431FA2300
:1069E0001D93C5230F4E0F5F5F4F1811B012305724
:1069F000B012025B073C1B533C500A002B9202244E
:106A0000304008675F43B012F24A354136413741A2
:106A1000384139413A413B4130410B120A120912C7
:106A200008120712061205123150F6FF7F9015006A
:106A3000022830405A8C4F4F0F5F104F3E6A686AF1
:106A4000C46A6C6B888392833E8446845284CA8570
:106A5000DE850C869A88D88816892A89A28A188B9E
:106A6000228B9A8BC68B3E8CC293483228201A42C6
:106A7000C4331B42C633B012D64A1842A23219425E
:106A8000A4321852A8321962AA32B012EA4A824AD3
:106A9000C433824BC633C2434832B012D64A82480E
:106AA000A8328249AA32824AA232824BA432814F52
:106AB0000800B01266551F410800B012EA4AB01231
:106AC000F6543A3CB012F654084E094FB012104535
:106AD0003640D03245433A433B40FF7F07430F47A0
:106AE0000F5F0F5F0F570F5FEFB3D83214240C48BE
:106AF0000D492C861D7602001E4604001F46060026
:106B00000E8C0F7D0F9B04380F9B05200E9A032CD3
:106B10000A4E0B4F5543175336500A002792DF2376
:106B20004593022030405A8C1B930A340B93022069
:106B30000A9306200E480F49B012F06630405A8C76
:106B4000824AC433824BC633D2434832B012D64A4B
:106B50008248A8328249AA32824AA232824BA432A7
:106B6000814F0800B01266553040D685B012D64A23
:106B70004B4FB012CA479243E631C243E831C24399
:106B80002C32C2437E324F4BB012EA4AB012D64A80
:106B9000814F0800B0128C4892434432C2438A327B
:106BA000F2F0FEFF2500B012D046D2D32400D2D39B
:106BB00025001F410800B012EA4AB012D64A4B4FD6
:106BC000A292DE3105207F400300B012804F4F4B70
:106BD000B012EA4AB012D64A4B4FB012E0504F43BF
:106BE000B012EE504F4BB012EA4A6F43B012A856A3
:106BF000B240672B60113F40AC30BF4064000000E2
:106C00002F533F90D831F9231F4200111F932320A7
:106C100082436011824FBE30B2400500C030B240A6
:106C20000A00C830B2400500BC3082432C31B2406B
:106C30000700B430B2400700D0308243B230B240D7
:106C40000900C230B24006003031A2433231B240B6
:106C50000600C630463C2F931820B2400500601154
:106C6000B240070064119243D23082434C318243D8
:106C7000C430B2400700B630B2400500D030824F79
:106C8000E030B2400300CE302C3C3F900300322075
:106C9000B24012006011B240050064118243AE3070
:106CA000B2400A00C830B2400900D2309243B63038
:106CB000B2400500D030B2400A00BA308243C23040
:106CC000B2400700CA30B2400900CC30B2400900DF
:106CD000D430B24007003031824FB830B2400700A4
:106CE000C6301C42A6300D430E4C0E5E3E5066115F
:106CF000304058832F921C20B24009006011A243FB
:106D00006411B2400700AE30A243BE30B242C03080
:106D1000B2400600C830B2400900BC30B2400600A4
:106D20002C31B242C230B24232318243C630D93FF6
:106D30003F9005002920B24012006011B2400600C9
:106D40006411B2400700C830B2400700B030A24220
:106D5000D230B2400A00C430B2400600D030924374
:106D6000B230A243C230A24230318243F230B2404C
:106D70000300F6308243E030A242F4309243C63042
:106D8000A242CE30304040743F9006001520B24001
:106D900014006011B2426411B2400300B230A2424A
:106DA000BA30B2400900C230B2400A00CA30A24232
:106DB000CC30B242D430923F3F9007001620B24010
:106DC00012006011A2436411B242C830A243D03015
:106DD000B2400A00B230A242CA30A243CC30B24024
:106DE0000600D430A242B8307C3F3F922720924325
:106DF0006011B24005006411B2400500AE30A242FD
:106E0000BE30B2400A00C030B2400A00C830A242D0
:106E10002C31B2400900B4308243D030824FC230AE
:106E2000B24005003031A2423231A242C630B240F7
:106E300006002A31B24003003C31533F3F90090025
:106E40001D2092436011924364119243AE30B240D0
:106E50000300C030B2400300C830A242BC30B2428E
:106E60002C31A243B430B2400600C23082433231EA
:106E7000B242C630B24005003C31333F3F900A0079
:106E80001920B24009006011B24003006411B24001
:106E90000500AE30B2400300BE30B2400300C8303F
:106EA000824FBC30B242B4309243C230B24009008B
:106EB0003231143F3F900B002B20B240090060118B
:106EC000B24006006411B2400900AE30B240060084
:106ED000BE309243C030B2400900C830B242BC302C
:106EE000B242B430A243B630B2400500D030824343
:106EF000B230B242CA30B2400300CC30B2400A00D5
:106F0000D430B24005003031B2400900B830C53C41
:106F10003F900C001020B24013006011B2400300FB
:106F200064118243B030B2400300D230B2400A0054
:106F3000B6303040E26C3F900D003020B2400B0084
:106F40006011B24005006411B2400600AE30B2429A
:106F5000BE30B2400700C030B242C830A242BC309E
:106F60008243B4309243B6309243D030B2400700EF
:106F7000B230B2400500C230B2400500CC30A2436E
:106F8000D430B24006003031A242F230B2400A00A2
:106F9000F630B2400700B8303040E26C3F900E004F
:106FA0003A2092436011B2400A006411B2400A00D4
:106FB000AE30B2400300BE30B2400300C030B24039
:106FC0000A00BC30B24006002C31B2400600B4309A
:106FD000B2400A00D230B2400700B630B2400600DC
:106FE000D030B2400A00B230B242BA30B2400900EA
:106FF000C230A243CA30B242CC3092433031B240A8
:107000000600F230B2400700F630B2400300F43020
:10701000B242C630953C3F900F002020B24007009E
:107020006011A2426411A243C830B242D230B240D1
:107030000700D030B2400700B230A242BA30B242AC
:10704000C230B2400600CC309243D430B24003008C
:107050003031B2400A00B8303040E26C3F9010004E
:107060002120B24003006011B24009006411B24215
:10707000C830A243D030B2400900B230A243BA3087
:10708000B2400300C230B2400600CA30B240030032
:10709000D43082433031A242B830B2400500C6300D
:1070A0003040E26C3F9011001B20B240270060117D
:1070B000B24003006411B2400300B030B24005009A
:1070C000D230A242B630B2400300F630B2400700E0
:1070D0005231B2400300FA309243F8303040E26C53
:1070E0003F9012003220B2400E006011B240060004
:1070F0006411B2400700AE30B2400600C83082438F
:10710000BC30B2400500B030B2400700D230B240CF
:107110000600B630B2400500B230A243BA30B240E9
:107120000500C230B2400700CA30A243CC30B242A0
:107130003031B2400600F2309243F6309243C6300E
:10714000B2400500EE303040E26C3F901300242046
:10715000A243601192436411B2400A00C8309243C6
:10716000B030B2400300C430A242B630B240070093
:10717000D030B2400900B230B242CA30B2400A0048
:10718000F630B2400500E030B2400500CE30B240EB
:10719000090052313040E26C3F9014001A20B24096
:1071A0000B006011B2400A006411B2400900B23015
:1071B000B2400600BA30B2400A00C2309243CA3030
:1071C000B2400300CC30B242B830A243C6303040A7
:1071D000E26C3F9018000E20B2401B006011A242EA
:1071E0006411A243EA30A242E230B24009000C31FD
:1071F0003040E26C3F9019001220B2402300601131
:10720000924364119243F230B2400A00F630B24227
:10721000F430B242EA30B2400600E430553C3F90D0
:107220001A001720B24013006011B240050064112B
:10723000A243B030B2400500D2308243B630824320
:10724000F230B242F630B242F430A242FA3030406C
:10725000E26C3F901B002120B24036006011A24238
:107260006411A242DC309243EA30A2430C31A243C3
:10727000F83082432031A2431C31B2421231B24075
:1072800007001A31A2421831B2400A000A31824383
:10729000E830B24206313040E26C3F901C001920C9
:1072A000B24019006011B24006006411B2400700FC
:1072B000F230B2400A00F630B2400500F43092439A
:1072C000EA30B2400600DE30B2400A00F83030400A
:1072D000E26C3F901E001F20B240390060119243C3
:1072E0006411B2400600F630B2400A00F430B240F9
:1072F0000500FA308243E230A243F83082431C3169
:10730000A2431231A2431631B24006000831924323
:107310001E313040E26C3F901F001820B240180030
:107320006011A2436411A243DC309243E230B240C8
:1073300006000C31B242DE309243E4308243243105
:10734000A243EC30A24306313040C2763F90200089
:107350001720B24022006011B24005006411A24320
:10736000EA30B24006000C31B24003002431A2439F
:107370000631B2400500F0309243EE303040E26C0E
:107380003F9021002520B2403C006011B24009002E
:107390006411B2400500C830B2400300B630B240BC
:1073A0000500D030B2400300F230B2400A00F6309F
:1073B000B2400700F430B2400A00EA30B2400A009E
:1073C0000C31B240090024319243EC3030406679F0
:1073D0003F9022000F20B2402D006011A2426411A4
:1073E000B24003000C31B2400500EC30A24206313D
:1073F0003040E26C3F9023002820B2400E00601124
:10740000B24006006411B2400600C8308243B63074
:10741000B2400600D030B2400500F6308243E03082
:10742000A242F430A242C630B24009000C3192436D
:10743000DE30B2400700E430A242F83092432431FB
:10744000B2400300EE303040E26C3F902400242034
:10745000B24025006011B24003006411B240030045
:10746000C830A242B630A242F230B2400300F63039
:10747000B242E0308243FA30B242DE30B240050020
:10748000E430B2400500F830B2400A00E830B240C3
:107490000700EE303040E26C3F9025003520B240CE
:1074A00005006011B24003006411B2400700C8300B
:1074B000B2400A00D230B2400300B6309243D0301E
:1074C000B2400500F230B242E030B2400300F43086
:1074D000B2400A00C630B2400300CE30B2400600CF
:1074E000FA30B2400A00DE30B2400A00E430B24066
:1074F0000900F830B24009001231B2400600E8300D
:10750000B24006002431DD3C3F9026002720B240E7
:1075100025006011B24009006411A242F230B2406D
:107520000900F630B2400500F4309243CE30B2424A
:10753000FA30A243E230B2400A00DE30B2400A0024
:10754000E430B24003001231A243E830B2400900F7
:107550001631B240090024313040E26C3F902700E0
:107560001620B24026006011B2426411B2400600FB
:10757000F630A242E0308243F430B2400300CE3015
:10758000B242F830B2400500E8303040E26C3F9043
:107590002D002B20B2403600601192436411A243AB
:1075A000EA30B242E230B24003000C31A242203154
:1075B000B2400A001C31B24007001231B240030051
:1075C0001A3192431831B24005000A31B240050029
:1075D0002431A243EC30A242F0309243EE30A24379
:1075E0001E31924322313040E26C3F902E00182031
:1075F000B2403900601182436411B24003001C3173
:10760000B24003001231B2400600E830B240090037
:10761000163182431E31B240060054313040E26CD4
:107620003F902F002520B24036006011A243641124
:10763000B2400A00E230A2420C3182432031B24013
:1076400006001C31B24003001231A2431A31A2439A
:107650001831B24006001631A2432431B240050071
:107660000631B2421E31B2400A0022313040E26C93
:107670003F9030002B20B2403600601182436411ED
:10768000B2400900F230B2400900DC30B2400600DE
:10769000EA30A243E230B24005002031B24003009C
:1076A0001A3182431831A2420A31B2400600243115
:1076B000B2400600EC30B24003000631B240030095
:1076C000F030B2400A00EE303040E26C3F903300C0
:1076D0003720B24035006011B2426411B240090057
:1076E000F630B242E230B2400300F830A24220311C
:1076F000B24007001C3192431A31B24003001831E6
:10770000B24003000A31A243E830B2421631B2401F
:1077100003000831B24007000631B2421E31B240C8
:1077200009002231B2400500463192435431824370
:107730003431B2424831B240070042313040E26C4D
:107740003F9035002C20B2404400601192436411F8
:10775000B2400900F830A2422031B24009001C3189
:10776000B2421231B24009001A31B2400900183158
:10777000B24006000A31A243E830B24009000831A5
:1077800092431E31B2400A004631B2400A005431E1
:1077900092433431B240070048313040E26C3F90B0
:1077A00036002520B24038006011B2400300641159
:1077B000A242E23082430C31B24009002031B24093
:1077C00003001C31B24003001231A2431A31A2431C
:1077D0000A31B2400900163192430631B2400A0024
:1077E0001E31B24009002231824354317D3C3F902A
:1077F00037002320B2402F006011A2436411B24031
:107800000700E230B24003000C31A2422031B24006
:1078100003001C3192431231A2431831A2430A31B2
:10782000B24009001631B24003000631B2400A00EE
:107830001E31A24322313040E26C3F9038003120AB
:10784000B24033006011B24007006411A243E2303D
:10785000B24005002031B24007001231B2400300AF
:107860001A31B24003001831B24006000A31824397
:10787000E830B24009001631B24003000831B2408E
:107880000A000631B24009001E31A2422231B24044
:107890000600463192435431B24006003431304044
:1078A000E26C3F9039002420B240350060119243D1
:1078B000641192435231B24009001C31B24212317C
:1078C000B2400A001A31B2400A001831B2420A31FD
:1078D0009243E8309243163182430831A243063185
:1078E00082434631B2425431824334313040E26CFB
:1078F0003F903A001F20B2402F0060118243641174
:107900008243E230B24005000C31B24005001C3128
:10791000A2421231A2421A31B24009001831824308
:107920000A31A2421631A2420631B240030022318E
:107930003040E26C3F903B001A20B2403A006011A8
:10794000B24003006411B24003002031A2421C3156
:10795000B24009001231A2431A31B2400900183175
:10796000B2400A000A31924306313040E26C3F9047
:107970003C002120B24042006011A2426411A242A8
:1079800030319243F230B2400600F6308243EA30A2
:10799000B24006000C31B2400900F830A2430A316F
:1079A000B2400300EC30B24005000631B24009009D
:1079B000EE303040E26C3F903F001C20B24040006F
:1079C0006011A2426411B2400600BC30A2422C31C8
:1079D000B2424631B24003003431B2400700483170
:1079E000B24003003631A2423C31B2400A00443179
:1079F0003040E26C3F904000182092436011824377
:107A000064118243AE30B242BE30B2400600C8308C
:107A1000A242BC30B2400600B430A2424C31A24374
:107A20003031A2422A313040E26C3F9041000E20BA
:107A3000B24049006011B24007006411B240070033
:107A40003E31B240060050313040E26C3F9042007F
:107A50003020B2401000601182436411B240060031
:107A6000AE309243C830B2400500BC30A2432C3146
:107A700092434C31A242B630B242D030B2400700FD
:107A8000B230B2400500C230B2400300CA30824377
:107A9000CC3082433231B2400600C630A24224319B
:107AA000A2423C3192439631B2400700B03130409F
:107AB000E26C3F9043001A20B240090060118243FB
:107AC0006411A243AE308243BE30B2400900C030E0
:107AD000A242BC30B242B43082433031B2400700DF
:107AE0003C31B240030038313040E87D3F904400E3
:107AF0002620B2404C00601192436411B240030052
:107B00002A31B24006001C318243123182431831BF
:107B10009243163182431E3192434631B2400600F1
:107B20004831B24006003631B2400A003C3192433F
:107B3000443182434231B2424A313040E26C3F909C
:107B400045002B20B24050006011A2436411A243B3
:107B50004C31B24003002A31A2434631B240060004
:107B60003431B24007004831B24009003C31A243F1
:107B7000383182434431B2400A004231B2400A00F7
:107B80004A31B242B431B2400700A231B2400600DD
:107B90009831A243BC313040E26C3F9046001C203B
:107BA000B2404E00601182436411B2400300323192
:107BB0008243463182434831A2433631B240070006
:107BC0003C31B24009003A31B24009003E31B24086
:107BD000070050313040E26C3F9047001420B24023
:107BE00048006011A2436411B24009003231B24032
:107BF00009004831A2433C31B24009003831924378
:107C000040313040E26C3F9048002E20B2404600A8
:107C10006011B24007006411B2400500BE30B240AE
:107C20000300BC30A2423031B24007003231A242E0
:107C30002A31B24009004631B2400A003431B24024
:107C400009004831B24009003631B24007003831EE
:107C5000B2424431B2400A004231A2433A31B2400A
:107C60000A0040313040E26C3F9049001420B2409D
:107C700077006011A2426411B24009003831B2406D
:107C80000600B63182435031A2429A31B240070019
:107C90002E313040E26C3F904A000C20B240470049
:107CA000601192436411B2400A003C3192433A3170
:107CB0003040E26C3F904B002320B2404400601102
:107CC00082436411B24007004C31B24007001231C8
:107CD000B2400700463182433431B2400A00483195
:107CE000B2400A003631B2400A003C31B2400900CD
:107CF0004431B24006004A319243BA313040E26C1E
:107D00003F904C002120B240450060118243641135
:107D100082434C31B2400A002A31B2400900463158
:107D200092433431A243483182433631B2423C312E
:107D3000B24009004231B2424A31B2400900B43186
:107D4000A243A2313040E26C3F904D002820B24067
:107D50004B006011B24007006411B2422A31B240B8
:107D600006001C31B24005001231B2400A00163143
:107D700082431E319243343182434831A24336312B
:107D8000B24009003C3182433831B24009004431ED
:107D9000B2400700423192434A313040E26C3F909A
:107DA0004E002720B24044006011B240060064112A
:107DB000B24007002A31B2421231B24007001631F8
:107DC00082434631B24006003431B24007003631BA
:107DD000B24009003C3182433831A2434431B240C1
:107DE0000A00423192434A31B24009003A313040F0
:107DF000E26C3F904F001F20B2404B006011B24038
:107E00000600641192434631B24007005431B24239
:107E1000343192434831B2400A003631B2424431E3
:107E2000B24006004231B2400900C031B2400A00FF
:107E3000C2313040E26C3F9050001B20A2436011E1
:107E400082436411A2422C318243B03092433031DC
:107E5000A243363182434431B24007004231B2403E
:107E60000700B431B24007009831B2429C31304033
:107E7000E26C3F9052001020B24041006011B240CD
:107E800006006411B2400700383182433E31B240EF
:107E900006002E313040E26C3F9053001320B24078
:107EA00011006011B24007006411B2400900D230E5
:107EB000B2400700CE3092431E31B2400500BC31C3
:107EC0003040E26C3F9054001820B24039006011FD
:107ED000B242641192431C319243123182431831F1
:107EE000B2400A001631B24006000831B2421E31DB
:107EF000B24007004A313040E26C3F9075001D20CF
:107F0000B240800060118243641192433031B2402C
:107F10000500B431B242A231B2400A009831B242F7
:107F2000B031B2400700A831A242A4318243AC3143
:107F3000B2400700A0313040E26C3F9076001F2035
:107F4000B24084006011B24005006411B2400700E5
:107F50004C31B24006003631B2400A009631B24090
:107F60000500B4318243A231B2400600BC31B240B8
:107F70000600A831A242A4319243A031993C3F901F
:107F800077001720B24089006011B24005006411EB
:107F9000A2423E31B2400600B631B242C031B240D8
:107FA0000A00C231B2400500BE31A242B2313040B7
:107FB000E26C3F9078001620B24076006011B2402B
:107FC00005006411B2424C31B2400600B431924314
:107FD000A231B24005009831A242BC31B240030048
:107FE000A8319E3C3F907A001E20B2408300601171
:107FF00092436411B24007009631B242B431B240AC
:108000000300A231B2400700C03192439831B24020
:108010000900BC31B2400600C231A243BE319243D6
:10802000B231304010833F907B002520B240870062
:108030006011B24005006411B24007003631B2420F
:108040009631A2434431B2400600B4319243C0316C
:1080500082439831B242BC31B2400700A83182431A
:10806000A431B2400300A03192439C31B2400500DC
:10807000BA313040E26C3F907C001F20B2407E005D
:108080006011B24003006411A2429631B242B43191
:108090008243A231A2429831B2400900BC31B240C1
:1080A0000700B031B2400300A831B2400500AC3146
:1080B000B24005009C313040E26C3F907E002020B1
:1080C000B24076006011B24006006411B240070071
:1080D0009631A243B431B2400700A231B24006004B
:1080E0009831B242BC31B2400A00B031B240030014
:1080F000A4319243AC31B24003009C313040E26C79
:108100003F9080001220B24082006011B24009000E
:10811000641182439631B2400900B0319243A831D4
:10812000B2400500A4313040E26C3F90820016203E
:10813000B2407E006011B2400A006411B2400700F4
:108140003031B2429631B2400A00A831B240070045
:10815000A431B2400900AC313040E26C3F90830062
:108160001920B2408B00601182436411B2400700B5
:10817000B631A2429A31B2400900C0319243A031D7
:108180008243C231B2400900BE31B2400700BA3169
:108190003040E26C3F9084002720B2407B006011A9
:1081A000B24006006411B24007004C31B242363191
:1081B000B24005009631B24009004431B240060099
:1081C000A231B2400500C031B24005009831B24042
:1081D0000500BC31A243A831B242A431B242A03161
:1081E000B24006009C31943C3F9085001520B2407F
:1081F00077006011B24006006411B24006003E31C3
:10820000B24006009A31B2400500C031B2400A00C7
:10821000C231A243BE31193C3F9087001B20B240BF
:1082200083006011B2400700641192434231A242C0
:10823000B431B2400500A231A242C031B2400300C5
:10824000BC31A242A0318243C231B2400700B231F8
:108250003040E26C3F9088002120B24078006011ED
:10826000A2426411B24005005231A2433631B240FD
:108270000500B431B242A231B24006009831B24298
:10828000A831B2400900A431B2400900A031A24295
:108290009C31B2400300BA313040E26C3F9089001B
:1082A0001620B2408B00601192436411A243B63194
:1082B000B24005009A31B2400300C031A243A03160
:1082C0009243C231B2400900B2313040E26C3F907B
:1082D0008A002220B2404F006011B24009006411B0
:1082E000B24009004A31B2400500B4319243A23194
:1082F000B2400500B631B2429A31B2400700A03117
:108300008243C231B2400300BE31B2400900B231F3
:10831000A242BA313040E26C3F908B0002243040E0
:10832000E26CB2408A00601182436411B2400A00DC
:108330004A31B2400A00B631B2400A009A31824353
:10834000C031B2400600A0319243BE318243B23107
:108350008243BA313040E26C0B4E0B5D8B4F000014
:108360002D533D90C800F8233C506400824CA63049
:10837000B012D8921F426411824F62110F5F5F4F9B
:108380001811B01230575B3C4F43B012A856304022
:108390005A8CB012D64AB012EA4A7F400300B0129B
:1083A000BA4F4F933A24B012D64A4B4F8243E6312C
:1083B000B012A645B012D846F2F0FDFF1F007F4074
:1083C0000300B012EE50B012E0504F4BB012EA4A28
:1083D000B012D64A82434432814F0800B0128C4812
:1083E000B012E050F2F0FEFF2500B012D0461F415F
:1083F0000800B012EA4A8243DE31B0124457B0128C
:10840000D64AF2F0DFFF1D00B012EA4AB01254570C
:108410007F400300B012F24A033C6F43B012A856EB
:108420001B42BA326F43B012CA5082932A340224DC
:1084300030405A8CF2433D110F4B3040C888B01287
:10844000025B30405A8CB012D64AC24334343040BA
:10845000388CB012D64A5B423611B012EA4A7B9091
:108460000500022830405A8C4F4B0F5F104F70842C
:108470007A84EC8426856A85C285B012EE4FB012EC
:10848000D64A4B4FA293DE3102243040388CB240A2
:108490000300DE313E4018007F401D00B012CC5377
:1084A000F2F0EFFF2500B012C846F2F0EFFF240013
:1084B000F2D0100025005F43B012804F3E407F0293
:1084C0007F401C00B012CC53B0126457B0129057CA
:1084D0003E40562A7F401700B012CC533E40FF80EA
:1084E0007F401500B012CC533040668AB012EE4F78
:1084F0007F400600B012804FB0126457B012905700
:10850000B0128A54B012E050B012EE4F7F40030018
:10851000B012804FB012E0505F43B012EE507F4077
:10852000060030401C8BB012EE4FB012D64A484FB6
:10853000B012DC4E4A4F4F9304244F48B012EA4A1F
:108540000D3C4F48B012EA4A7F405300B012A24699
:108550004F4AB012A2464F4AB012A246B012E050A3
:108560006F43B012EE5030405A8CB012D64A5A4285
:10857000E631B012EA4A6A9208247A920A246A938F
:108580001C20B012BC5630405A8CB01238533040C8
:108590005A8CB012EE4FB012B04FB012E050B01281
:1085A0009251B012D64A9243E631B012EA4A7F4065
:1085B0000300B012965030405A8CB01292513040A5
:1085C0005A8CB012865030405A8CB012D64A814F25
:1085D0000800B012DC5C1F4108003040388CB0123B
:1085E000D64AD242B8333911F2400300E231B01218
:1085F000EA4A5F423911B0123E5BC293391102243C
:1086000030405A8C7F40070030401C8B1D420E3298
:108610000E4D3E502800664D4F460F5D6D4F4D5D2F
:108620004D434D6DCE4D03006D4F7DF07F00CE4D1F
:108630000100DE4FFFFF00001A420E320F4A1F53A7
:10864000B01218450B4FB012D64A58427F32B012C2
:10865000EA4A489337240E4B8E103EF0FF0012C3B7
:108660000E100E113EF003002E9312203A50060019
:108670000F4AB01218450B4FB012DA4F0B9F22244D
:108680000F4AB01218453F930224304086881A3CA6
:108690003E9003000224304086889142B0330000AF
:1086A0009142B23302009142B43304009142B63396
:1086B00006003D420E410F4A3F500600B012109096
:1086C0000F93E12076900D00DE2818420E320F48FD
:1086D0001F53B01218458F103FF0FF0012C30F1048
:1086E0000F110E4F3EF003000F110F110F110F115C
:1086F0003F90030002242D43013C3D423E90030085
:1087000002242E43013C3E423E5006000E580A43CE
:108710000F4A0C4E0C5F6C4C0A5C1F530F9DF93BCB
:108720005B480300F2432C34B012D64A5C422C342E
:108730003E4018320D432A9E0920CE9B02000520A0
:10874000C24C2C34B012EA4A9C3C4C4D1D532E5264
:108750002D92F123C24C2C34B012EA4A57422C34E9
:10876000B012D64A77930324C297EA3104205742C5
:10877000EA315D43013C4D434E470E5E0E5E8E4A2C
:108780001832CE4B1A324D9307245E42EA315E53C3
:108790007EF00300C24EEA31B012EA4AB012D64A65
:1087A0004A4F0F48B0124C486B4F4F4AB012EA4A3A
:1087B000C8932B0066247B903F0063200A483A5000
:1087C00006000F4AB01218450B4FB012E2540B9F2F
:1087D00005240F4AB01218453F935320F890060025
:1087E0000B004F20769013004C200F483F500C0098
:1087F000B012BC460A4F0F933020064836500E0088
:108800000F46B012BC46074F0F483F501000B01241
:10881000BC460E470E5E3E50AC302F9E3220824743
:10882000AA300F46B012BC461F92601106208293F8
:10883000A6300320263C1753013C074AB01242924F
:108840000C4F3A402800B0122693079EF42B0D439C
:108850000E434F43B0125A56143C1F9312209253AA
:10886000A83082435A110F483F500E00B012BC4648
:108870001D42A6300E4D0E5E8E4F66111D53824D69
:10888000A63082480E32B012D64AC2438A32B012A3
:10889000EA4AB012685C30405A8C5A429A325A9274
:1088A0003D11022030405A8CC24A3D114A9310209B
:1088B0001F42EC31B012C65F4F9A022030405A8CF2
:1088C000F2433D111F42EC31B0120A6230405A8C23
:1088D000F2433D1130405A8CC2932834022030407C
:1088E0005A8C3A40C432474358435F4228344E487A
:1088F0004EFF09242E4A8A4300004FC8C24F283435
:108900004F47B0128C4A57532A5377920220304077
:108910005A8C4858EA3F5F4240114E4F0E5E1E4E41
:10892000C432B0129E6130405A8CB012D64AC24353
:108930003134584264335A43789201244A435743AE
:1089400078900900012447434A930220479A07245C
:10895000C24364335E42CC320E5ECE43B432B012B8
:10896000EA4A4A930220479A1F24B012D64AD253A9
:108970001E34F2904300A7320E205E42BD32C29EEA
:10898000BC320D245E53C24EBD327E9006000728D5
:10899000C243BD32043C484A58E35A43023C4A436E
:1089A000484AB012EA4A033C489754204A48B01259
:1089B000D64A5642EE31B012EA4A46930824B01223
:1089C000D64AF2400A006433B012EA4A363CB0128A
:1089D000D64A5742B4325B42B632B012EA4AB012BB
:1089E000E4574F961B20479F1920B012D64A4B4F91
:1089F000E243B432B012E4574F9704205E42BD32D6
:108A0000574EBE32C247B532F2404300A732C2438E
:108A1000CC324F4BB012EA4A5743103C4F4B7F5376
:108A20005743479F0A28B012D64AF2404500A73262
:108A3000C247CC32B012EA4A013C47434A930A2467
:108A4000B012D64AC248FC31B012EA4A7F40120046
:108A5000B012F24AB012D64A4B4FF2900A00643379
:108A60000420B012B04B4F4BE73CB012EA4A479398
:108A7000F424B012D64A82433834C243A032D243DF
:108A80006433B012EA4AB0125A584F93E624B01237
:108A9000D64AF24009006433B012EA4AB012064CDA
:108AA000DC3CB012D64AC2930C322D20E2430C3289
:108AB000C2439032B012EA4AB012D64A4A4FD29319
:108AC0004A1112205E420C325E9305207F40140052
:108AD000B012F24A093C6E930720D24290324A11FA
:108AE000F24003000C32013C4F4AB012EA4AC293F2
:108AF0004A1105205F424A11B0128465063CB0124B
:108B0000D64AC2430C32B012EA4AB012D64AC24325
:108B10006433C2438B32903C7F401100B012F24A62
:108B20009C3CB01200584F93982482938832952031
:108B300082932E349220B012D64A4A4FF29003000C
:108B40000C322920C2934A1126205E4248117E939E
:108B500018244D4E5C4D2734C24C48117C930220A2
:108B6000C24C4911FD432734C24E9032F2434A11A0
:108B7000D2430C327F401400B012F24AB012C64AFF
:108B80000A3CD2434A11C2430C32B012C64AB01258
:108B90001E48B0123C484F4A4F3C8243F631B01257
:108BA000D64AB012EA4A1F42F4315E4200324E9376
:108BB0005420FF9089FF0B0050203F9066334D20DA
:108BC000C24EDA314A3CB012D64A5B4204321A42F3
:108BD000063258422B32B012EA4A4B931A20FA90CE
:108BE00089FF0B00162082435A11824362115F42B3
:108BF0001811B0123057B012025B3D400A000E430C
:108C00005F43B0125A561D4212110E436F43B01209
:108C10005A56B012D64A4E480E5E8E4A42115E42F5
:108C2000F031489303247EF0FBFF023C7EF0FDFF11
:108C3000C24EF031C2430232B012EA4A0E3CB012C8
:108C4000D64AD24290324A11F24003000C32B0129E
:108C5000EA4A5F424A11B012846531500A00354138
:108C600036413741384139413A413B413041B012F8
:108C70003E477F930424B0121A6A5F4330414F434A
:108C800030410F120E120D120C124F43B012D0448D
:108C90003C413D413E413F41B1C0F0000000001366
:108CA0000F120E120D120C121F422E0112C34F1082
:108CB000B012D0443C413D413E413F41B1C0F00083
:108CC000000000130F120E120D120C124F43B012BF
:108CD00082623C413D413E413F41B1C0F000000055
:108CE00000130F120E120D120C121F421E0112C39E
:108CF0004F10B01282623C413D413E413F41B1C004
:108D0000F000000000130F120E120D120C120B12C5
:108D100021835F4225005FF223004F4F814F000007
:108D20002F411FF30D24B012D046929344320520F8
:108D3000A2434432B012425C523CD25380324F3C88
:108D40002E412EF30E9F0424F2F0FDFF2300473C3A
:108D50002F412FF20F9E0424F2F0FBFF23003F3C33
:108D60002B413BF20B9F0424F2F0F7FF2300373C2A
:108D70002F413FF010000F9B1824B012C846A242AA
:108D8000DE31F2F0EFFF2500B012C8460E4B7F40F7
:108D90001D00B012CC53B0128A54B012E050B01281
:108DA000EE4F6F43B012F24A1A3C2E413EF02000C3
:108DB0000E9F0424F2F0DFFF2300113C2F413FF00F
:108DC00040000F9E0424F2F0BFFF2300083C2E4118
:108DD0003EF080000E9F0324F2F07F002300215319
:108DE0003B413C413D413E413F41B1C0F0000000AC
:108DF00000130F120E1221835F422D005FF22B0031
:108E00004F4F814F00002F411FF30424F2F0FEFF6B
:108E10002B003B3C2E412EF30E9F0424F2F0FDFF6D
:108E20002B00333C2F412FF20F9E0424F2F0FBFF66
:108E30002B002B3C2E413EF20E9F0424F2F0F7FF54
:108E40002B00233C2F413FF010000F9E0424F2F032
:108E5000EFFF2B001A3C2E413EF020000E9F042411
:108E6000F2F0DFFF2B00113C2F413FF040000F9E3E
:108E70000424F2F0BFFF2B00083C2E413EF080009E
:108E80000E9F0324F2F07F002B0021533E413F410F
:108E9000B1C0F000000000130F120E120D120C12E0
:108EA0005E4276005F42E2314F931C24183CC2932D
:108EB000391118201F4262330F9304241F522034AB
:108EC000CF4EFFFF929224342034032CB012664E12
:108ED000093CF2F0BFFF0000B012DC5C033C7F9065
:108EE0000300E5273C413D413E413F41B1C0F00018
:108EF000000000130F125F4270003FF020000624B4
:108F00005F4270002FF202245F4270003F41B1C007
:108F1000F000000000130F120E120D120C125E4230
:108F20007E005F420C324F9332242E3CC2934A1192
:108F30002E201F4288320F930F241D4260330F5D95
:108F4000CF4E00000F4D1F53824F60331F92CE3221
:108F50001E28824388321B3C7E907E0003204E4FA9
:108F60005F430F3C7E907D000320E2D30A320F3C2A
:108F7000E2B30A320524F2F0FDFF0A327EE020005F
:108F80004F43B0122E4C033C7F900300CF273C414F
:108F90003D413E413F41B1C0F000000000130F12BF
:108FA0000E120D120C125F420C324F931F241B3C09
:108FB0005F424A114F931A20C29F10320F201F4266
:108FC00092321F929C330A2C1E422E340E5F6E4E3C
:108FD0001F53824F9232C24E7F00083C82432E3490
:108FE000B0129C58033C7F900300E2273C413D4176
:108FF0003E413F41B1C0F0000000001300001000EE
:1090000050009000D000F00000009CFF020008001B
:109010000B120A120D9312240C430B4F0B5C6A4B7C
:109020000B4E0B5C6B4B4A9B04244F4A4E4B0F8EEE
:10903000063C1C530D9CF1230F43013C0F4D3A415C
:109040003B4130410B120A12091208120D9377248A
:109050000B4F0C4E0F9E73240F9E342C0A4E0ADFCA
:109060001AF31A240CEF1CF308201C430C9D062C49
:109070000B4E0BFC2C430C8B013C0C4D0D8C0B430D
:109080000A4F0A5B094E095BEA4900001B530C9B1F
:10909000F7230B4F0B5C0C5E0E4D12C30E100E939C
:1090A0000C24084E094C0A4BAA49000029532A53A4
:1090B0003853FA230E5E0C5E0B5E1DF34024EB4C1E
:1090C00000003D3C0E5D0C4F0C5D0B4C0BDE1BF3AA
:1090D0001B240B4C0BEE1BF306203D9003000328D2
:1090E0000B4E1BF3013C0B4D0D8B0A4B3A533BE3EC
:1090F0001B530C5B0E5B0B4C0B5A094E095AEB4988
:1091000000003A533A93F7230A4D12C30A100A9308
:109110001124084A094E0B4C29832B83AB490000CC
:109120003853FA230B4A0B110B430B100B8A0B5BC2
:109130000E5B0C5B1DF30324DC4EFFFFFFFF384189
:1091400039413A413B4130410B120A1209120812CF
:109150000B4F3D900600082C043CCB4E00001B53E7
:109160003D530D93FA231E3C4A4E0A9303240C4AA6
:109170008C100ADC1FB305243D53CF4E00000B4F6B
:109180001B530C4D12C30C10084B094C884A0000AD
:1091900028533953FB230C5C0C5B1DF30D990224FF
:1091A000CC4E0000384139413A413B4130410B122D
:1091B0000A120912094F2A4F0B430E4A0F4B4FEE6A
:1091C0000FEE8F107EF38E100E5E0F6F0E8A0F7BE8
:1091D0000E5E0F6F0E5E0F6F0E5A0F6B0C4E0D4F23
:1091E0004DEC0DEC8D107CF38C100C5C0D6D0C8E29
:1091F0000D7F0C5C0D6D0C5A0D6B0E4C0F4D0E5E01
:109200000F6F0E5E0F6F0E5E0F6F0E5E0F6F0E5EB6
:109210000F6F0E5C0F6D0E5E0F6F0E5E0F6F0E8A7E
:109220000F7B0E5E0F6F0E5E0F6F0E5A0F6B3E5070
:1092300039300F63894E00000F4E39413A413B41AE
:1092400030410B120A121A4254111B4256110E4A97
:109250000F4B4FEE0FEE8F107EF38E100E5E0F6FE2
:109260000E8A0F7B0E5E0F6F0E5E0F6F0E5A0F6B26
:109270000C4E0D4F4DEC0DEC8D107CF38C100C5CF6
:109280000D6D0C8E0D7F0C5C0D6D0C5A0D6B0E4C24
:109290000F4D0E5E0F6F0E5E0F6F0E5E0F6F0E5E48
:1092A0000F6F0E5E0F6F0E5C0F6D0E5E0F6F0E5E1A
:1092B0000F6F0E8A0F7B0E5E0F6F0E5E0F6F0E5AD2
:1092C0000F6B3E5039300F63824E5411824F56114E
:1092D0000F4E3A413B413041824F54118243561167
:1092E0003041064307430A430B4330405C934EEE44
:1092F0007B400900053C0D104E6E4E9A01284E8AA7
:109300004C6C0D6D5B83F72330410EEE3B4011003A
:10931000053C0D100E6E0E9A01280E8A0C6C0D6D18
:109320001B83F72330410D433CB0008003283CE30E
:109330001C532DD23AB0008003283AE31A533DD291
:10934000B0120A930D102DB204283EE31E533CE3E5
:109350001C533DB202283CE31C5330410F430E43E3
:109360000D430C4382483001824438011C423A01CB
:1093700092423C013A0192423E013C018248340152
:109380008245380182493401824438011D423A0144
:1093900092423C013A0192423E013C018245380131
:1093A0008248340182463801824A340182443801BD
:1093B0001E423A0192423C013A01824538018248FC
:1093C0003401824738018249340182463801824B98
:1093D0003401824438011F423A010C4C0D4D0E4EAF
:0693E0000F4F30410013A5
:1093E6000100020012A212008410200803000100EE
:1093F6000A006400581B02001A0015001900160026
:109406000F0014001700180011000C0013001000C4
:109416000E000B000D00FFFFFF01010022FFFFFF02
:1094260001FFF8322C33F832FFFF0100090010105B
:08943600200803000100000002
:10FFE000CC44F28D9E8F168F068DA08C828CCC44D3
:10FFF000F48E988ECC44CC44E28CC48CCC4400402B
:0400000300004000B9
:00000001FF
